:020000040000FA
:1000000028340020F5030000FD0300001502000065
:1000100001040000030400000504000000000000CB
:1000200000000000000000000000000007040000C5
:1000300009040000000000000B0400000D04000093
:10004000BD0700000F0400009D0E0000590A0000CB
:10005000650A00000F040000E1040000110900001F
:10006000390E00004D0E0000610E0000E108000096
:100070000F040000B90800000F0400000F04000086
:10008000A90E0000F1080000FD070000D5040000E3
:100090007D0A0000830A0000890A00008F0A000020
:1000A000950A00009B0A0000750E0000890E0000F2
:1000B000CD070000D1060000000000000000000095
:1000C0000F040000DD070000ED070000710A0000CA
:1000D00001090000C50500000F0400000000000039
:1000E0000000000000000000000000000000000010
:1000F0000000000000000000000000000000000000
:1001000000000000000000000000000000000000EF
:1001100000000000000000000000000000000000DF
:1001200000000000000000000000000000000000CF
:1001300000000000000000000000000000000000BF
:1001400000000000000000000000000000000000AF
:10015000000000000000000000000000000000009F
:10016000000000000000000000000000000000008F
:10017000000000000000000000000000000000007F
:10018000000000000000000000000000000000006F
:10019000000000000000000000000000000000005F
:1001A000000000000000000000000000000000004F
:1001B000000000000000000000000000000000003F
:1001C000000000000000000000000000000000002F
:1001D000000000000000000000000000000000001F
:1001E000000000000000000000000000000000000F
:1001F00000000000000000000000000000000000FF
:10020000DFF80CD000F054F9004800473F1D000013
:1002100028340020094B1EF0040F1CBFEFF30980A7
:100220001847EFF308800649064A884201D89042F1
:1002300002D88D464FF000001847000085050000E9
:10024000283400202814002030B450E8012F93B245
:10025000C48923448489A34228BF1B1B0489A34269
:1002600002BFBFF32F8F002007E0C3EA020340E87C
:100270000134002CE9D14FF001000A6030BC704716
:1002800050E8012FC2EA024240E801210029F7D1DB
:10029000704730B450E8022F1FFAA2F3C488A3427B
:1002A00002BFBFF32F8F00200DE0C489234484894F
:1002B000A34228BF1B1BC2EA034340E80234002CC0
:1002C000E8D14FF001000A6030BC704750E8022FBF
:1002D000C2EA224240E802210029F7D170470346D2
:1002E00053E8022FD988B2EB324F4FF0000017BF0E
:1002F00092B241EA014142EA014104E05A68B2EB9C
:10030000324F08BF012043E80212002AE8D17047AB
:1003100030B4044654E8000F0D4644E80053002B67
:10032000F8D1156030BC704730B4044654E8000F73
:1003300040EA010544E80053002BF7D1156030BCBA
:10034000704730B4044654E8000F00EA010544E861
:100350000053002BF7D1156030BC704730B4044611
:1003600054E8000F80EA010544E80053002BF7D160
:10037000156030BC704730B4044654E8000F00EB01
:10038000010544E80053002BF7D1156030BC7047DD
:1003900030B4044654E8000FA0EB010544E80053D4
:1003A000002BF7D1156030BC704770B404464FF095
:1003B000000054E8006F0D68AE4207BF44E8002318
:1003C000012044E800630E60002B1CBF0020F0E712
:1003D00070BC704730B4044654E8000F88422CBF0C
:1003E000451A054644E80053002BF5D1156030BC92
:1003F000704700000648804706480047FEE7FEE7D2
:10040000FEE7FEE7FEE7FEE7FEE7FEE7FEE7FEE7C4
:10041000A10A00000102000000487047146B0000B0
:1004200010B5441A0346944209D28418114403E0DB
:1004300011F8013D04F8013D521EF9D210BD40EA09
:100440000104A40703D009E010C9121F10C3042A35
:10045000FAD203E011F8014B03F8014B521EF9D216
:1004600010BDD2B201E000F8012B491EFBD270474B
:100470000022F6E710B513460A4604461946FFF770
:10048000F0FF204610BD421C10F8011B0029FBD1D3
:10049000801A704710B5002200E0521C835C8C5C0F
:1004A000A34201D1002BF8D1D8B2E1B2401A10BD5D
:1004B000064C074D06E0E06840F0010394E80700B1
:1004C00098471034AC42F6D3FFF79EFEA46F0000AD
:1004D000C46F00000148006800470000440000208D
:1004E0002DE9F8430025DFF894804FF4807601244D
:1004F0002F460095304603F0A3F938B1D8F804032D
:10050000204203D0304603F091F92543361D6400A4
:100510007F1CB6B2082FEDD34FF4BE74204603F013
:100520008FF948B1204603F081F945F000456A464D
:100530000121002003F064F915F0FF0F16D0012609
:1005400000242E420ED008EB8401D1F81005D1F81A
:100550001015C0F304200A4AC1F3014152F82420C7
:1005600002B190477600641C082CEAD3002D02DA11
:10057000684603F0F1FBBDE8F8830000006000402E
:1005800090020020054909680449091D09680021F5
:10059000491C1A29FCD300F003F8000028ED00E004
:1005A000BFF34F8F05480168054A01F4E06111432C
:1005B0000160BFF34F8F00BFFDE700000CED00E0CE
:1005C0000400FA052DE9FC413F4E4FF48A75294697
:1005D000304603F043F93D4C70B12946304603F0F4
:1005E00042F9607940F008016171880704D5C806B6
:1005F00002D541F0200060714FF4827529463046E3
:1006000003F02CF970B12946304603F02CF96079DB
:1006100040F004016171C80704D0C80602D541F05A
:10062000200060714FF484773946304603F016F9A4
:100630000025B0B13946304603F015F90420C6F85C
:100640000803C6F800552148002122681030904761
:100650001E48002122680830904701202071BDE823
:10066000FC81607981074FEAC07103D519B1010798
:1006700005D4F4E709B9010703D48107EFD4410792
:10068000EDD520F00C00607181060BD520F0200024
:1006900040F010006071226802B00121BDE8F04115
:1006A00000201047D4E90412CDE90012D4E9021267
:1006B000A560E560C4E9041240F010006071226892
:1006C000012168469047CAE700500240EC02002032
:1006D0002DE9FE434FF48078404603F0D3F801261D
:1006E000334F344C002570B3404603F0D3F8A07C60
:1006F00026EA000104EB810252682AB9627C022AD0
:1007000002D0E07C90B119E08DF80850E574627C6D
:10071000022A08D004EB8000426801924560A1746F
:100720008DF8006007E001956674F9E797E8070027
:100730008DE80700E674216868468847607C0228D7
:1007400028D1667426E0FFE74FF48278404603F034
:1007500099F8F8B1404603F09DF8174805606574B4
:100760008DF808508DF80050A07C04EB800148689B
:1007700020B101904D60216868468847A07C86437F
:1007800004EB8600416821B101914560216868460B
:100790008847A574207D002808D00C3797E807000B
:1007A0008DE807002575216868468847BDE8FE8307
:1007B000D44500000403002000D5014010B503F02B
:1007C00005FABDE8104003F0D5B900000149024820
:1007D00001F0EDB91C03002000C0014001490248AE
:1007E00001F0E5B92403002000100240014902484D
:1007F00001F0DDB92C030020002002402DE9F84370
:100800002A48DFF8A4804FF480720168284E002542
:1008100089B1D8F8041311F0010F0CD005600068FD
:100820000090244862F30F040068726860F3174474
:100830003946204690471D484FF48271001D0268DA
:10084000BAB1D8F8042312F0020F12D00560006884
:100850000090184861F30F040C30006860F31F44E7
:1008600014483C300068726860F30F073946204630
:1008700090470E484FF48472083041460368002BBD
:1008800010D0D1F8041311F0040F0BD005600068EC
:100890000090204662F30F00726801B03946BDE84F
:1008A000F0431047BDE8F8830020014000210140DB
:1008B000540000200C250140064882B00021016050
:1008C00000680090044800680449C0B2496802B05A
:1008D0000847000000D1004008D500405C0000201F
:1008E00003220021014801F0B1B9000000B000402E
:1008F00002490248091F096800680847840000206F
:1009000004220121014801F0A1B900000040024089
:100910002DE9FE434FF48278404603F009F94C4F2D
:1009200000254C4C012600B3404603F009F994F829
:100930002E0010B194F82F10D1B18DF800506168DD
:1009400001912189ADF80810E26832B1218B6183F1
:1009500062602181E56010B102E0257400E03E6034
:1009600021686846884784F82F5094F82E0060B3B9
:100970004FF48077384603F0DBF830B3384603F0A5
:10098000DFF8628B94F82D108A420AD9A2EB01009D
:1009900080B260832289A2EB0000626802EB400013
:1009A00005E007D1E06828B184F82F60658303F083
:1009B000B7F804E08A4202D184F82F60658340468C
:1009C00003F0BEF82248001D06604FF488773846D1
:1009D00003F0AEF848B1384603F0B2F825740220AF
:1009E0008DF800002168684688474FF48A773846BA
:1009F00003F09EF828B1384603F0A2F82574BDE84C
:100A0000FE834FF000484FF48C7967691DE000BF0A
:100A1000B7FA87F028FA00F109EB80058F432846E2
:100A200003F086F888B1284603F08AF8A5F58C759E
:100A3000E8088DF8040045F38000401C8DF8006044
:100A40008DF80500216868468847002FE0D1D6E779
:100A50000070004034030020014800680047000097
:100A60002C000020014800680047000034000020EE
:100A700001480068004700003C000020002003F00F
:100A800053BB012003F050BB022003F04DBB0320F9
:100A900003F04ABB042003F047BB052003F044BB2E
:100AA000F0B5D34AD3494FF080541368D4F83001DD
:100AB0000978D4F83421451CC1F3031107D08446CA
:100AC000164601270025BCF1060F04D013E003F001
:100AD000FF0C0E46F5E7032E05D0042E03D0052E9D
:100AE00001D0062E07D1B4F82463DFF80CC3C6F397
:100AF0000426CCF80060DEB2062E06D1032904D10C
:100B0000DFF8FCC2BD4ECCF87460461C06D08446AB
:100B10004FEA0206BCF1060F04D013E003F0FF0C0D
:100B20000E46F7E7032E05D0042E03D0052E01D084
:100B3000062E07D1D4F84462DFF8C8C2C6F34236A5
:100B4000CCF80060DEB2062E08D1032906D1AE4EE5
:100B5000D6F800C02CF0807CC6F800C0461C05D03A
:100B600084461646BCF1060F04D014E003F0FF0CD7
:100B70000E46F7E7032E05D0042E03D0052E01D034
:100B8000062E08D14FF08046C6F80C51C6F8105119
:100B90009C4E361F3560DEB2062E08D1032906D1E1
:100BA000DFF860C203260CF1640CCCF80060DEB202
:100BB000062E11D103290FD1DFF850C20526CCF83B
:100BC0000060924E78363760904E083635600CF1F2
:100BD000040C3F26CCF80060461C05D0844616461F
:100BE000BCF1060F04D087E003F0FF0C0E46F7E7D8
:100BF000032E7CD0042E7FD0052E01D0062E7BD173
:100C0000834E3668DFF80CC2CCF80060804E361D8B
:100C100036680CF1040CCCF800607D4E083636685E
:100C20000CF1040CCCF80060794E0C3636680CF1EF
:100C3000040CCCF80060764E103636680CF1040CCB
:100C4000CCF80060724E143636680CF1040CCCF807
:100C500000606F4E18363668DFF8B8C10CF1200C12
:100C6000CCF800606A4E1C3636680CF1040CCCF8E7
:100C70000060674E203636680CF1040CCCF800603A
:100C8000634E243636680CF1040CCCF80060604EDC
:100C9000283636680CF1040CCCF800605C4E2C361B
:100CA00036680CF1040CCCF80060594E30363668CA
:100CB000DFF860C10CF1400CCCF80060544E3436C3
:100CC00036680CF1040CCCF80060514E38363668AA
:100CD0000CF1040CCCF800604D4E3C3636680CF13B
:100CE000040CCCF800604A4E4036366800E003E061
:100CF0000CF1040CCCF80060461C05D08446164666
:100D0000BCF1060F04D011E003F0FF0C0E46F7E72C
:100D1000032E05D0042E03D0052E01D0062E05D1BA
:100D2000D4F858423C4E04F04F043460441C04D0C4
:100D300003461146062B02D010E0DBB2FAE7032986
:100D400005D0042903D0052901D0062906D133494D
:100D50000B68DB0702D06FF001030B6006280CD193
:100D6000032A0AD0042A08D0052A06D0062A04D16C
:100D70002B48016841F480610160234874380168A0
:100D800041F470010160BFF34F8FBFF36F8F4FF0DD
:100D90001021D1F80002002803DBD1F8040200285A
:100DA00022DA204A176020480368002BFCD0152364
:100DB000C1F800320468002CFCD0C1F8043201688C
:100DC0000029FCD0156001680029FCD0BFF34F8FCB
:100DD0000D48F0380168154A01F4E06111430160E3
:100DE000BFF34F8F00BFFDE7124911480860F0BD07
:100DF000E00F00F0E80F00F0403501400DF0ADBA13
:100E000000C007403C050040FCED00E010560040EB
:100E10000404001020C50040E40E0040000400401F
:100E20003C17004004E5014000E401400400FA05DD
:100E30000090D003C800002004220249024800F0BC
:100E400055BF0000880300200080004004220249B2
:100E5000024800F04BBF00009403002000900040C7
:100E600004220249024800F041BF0000A003002014
:100E700000A0004006220249024800F037BF0000EF
:100E8000AC03002000A0014006220249024800F005
:100E90002DBF0000B803002000B0014001480068E9
:100EA000004700004C00002038B5064C20680025A3
:100EB000002805D0044840688047256020680090DD
:100EC00038BD0000000101407400002002E008C8A5
:100ED000121F08C1002AFAD170477047002001E0B4
:100EE00001C1121F002AFBD17047800701D00020EA
:100EF000704701207047C3688B4206D811440069CF
:100F0000491E814201D8012070470020704700F03F
:100F100003B800F009B8000072B602480168491C25
:100F2000016070477C00002003490868401E08608B
:100F300000D162B6704700007C0000202DE9F04F20
:100F4000ADF53F7D14460E468346B2F5C07F05D908
:100F50006FF037000DF53F7DBDE8F08F4FF4D07195
:100F60006846FFF785FA68A800F0FDFE200E8DF8B0
:100F70001000200C8DF81100200A8DF8120020209E
:100F80008DF8170006AD8DF81340224631462846ED
:100F9000FFF746FA8020285504F119080020BAA965
:100FA0000854401C1028FBDB802268A800F0E0FEFB
:100FB000070051D10025AA466E46CDF8B8A2CDF85B
:100FC000BCA2CDF8C0A244460DF52E79CDF8C4A23E
:100FD00017E000204946335C0A5C5A400A54401C22
:100FE0001028F8DB1036102C01D3102000E020462A
:100FF000241AAEAB1A46012168A800F0A1FE070032
:101000002AD1002CE5D1B2A828441022AEA9FFF7BE
:1010100007FA9DF803001035401C8DF80300202DC1
:10102000CADB8022B2A968A800F0A2FE070013D193
:10103000B6AE5C46002533461A46012168A800F08A
:101040007FFE070008D1102231462046FFF7E8F95D
:1010500010341035202DEEDB68A800F07DFE4FF433
:10106000D071684601F084FC2021B2A801F080FC18
:101070001021BAA801F07CFC1021AEA801F078FC88
:101080001FB12021584601F073FC384662E770B565
:101090000D4604460A2902D10D21FFF7F8FFA0688A
:1010A0002268411CA1601554D4E90101814204D396
:1010B0002046BDE8704002F03EBA70BD02490844C7
:1010C00090F9300070470000900200202DE9F041B7
:1010D000044680680F46D0F84811C27F11F001061F
:1010E000817FA1EB0203DDB20BD07F2901D3002D5C
:1010F0007ED0A068C17F0844002180F8207066B1CE
:1011000013E07F297CD2002DF3D0831803F1200156
:101110002A46481CFFF784F9EBE7A068827F521C3F
:10112000D2B28277A068203281544DB3204601F0BC
:1011300068FC8178C07881420ED1A06831A2C17F5D
:10114000431808212046203301F098FFA81BC1B2A4
:10115000204600F06FF921E0204600F06BF8A0680F
:1011600028A2C17F431808212046203301F086FFC2
:10117000204600F055F80121204600F0FFF90DE06F
:101180003EB1A068827F521CD2B28277A068203222
:1011900081543A461CA1206902F0C0F9A168C87FB9
:1011A000401CC877204600F031F90028204603D0C3
:1011B000BDE8F04100F04AB900F00CFB00281FD058
:1011C000204601F01EFC0546C078A978401A401E52
:1011D000C1B2204600F00EF9204600F037F9E87859
:1011E000A978401AC1B2204600F0D4F9287800E06E
:1011F00006E0401EC1B22046BDE8F04100F0BEB995
:10120000BDE8F08125730000256300000069024AF3
:1012100002A102F083B90000A94700002573000075
:101220000069024A024902F079B90000A3470000B0
:101230001C1200000069024A024902F06FB9000066
:10124000A04700001C1200008068D0F84801C0F3DD
:10125000C000704730B4406804682469A44630BCBC
:101260006047002801D0FFF70EB970472DE9F84319
:101270001E4615468846074600241BE0786808EBA2
:1012800004016B460268D2F80CC02A46E047009879
:1012900004442D1A70B9B868017803290AD000BF38
:1012A000D0F848118906FBD5D0F8481121F020016B
:1012B000C0F84811002DE1D1002E01D00098306017
:1012C000BDE8F8832DE9F05F1C460A9E15464FF0F5
:1012D000000959B180B3017839B3426831462846D4
:1012E00090473068D8B12660BDE8F09F1449154892
:1012F000A1EB0008B5EBD80F11D2DFF84CA0002607
:10130000834609E00BEBC607786801685AF82500A8
:10131000FFF7C0F830B1761CB6EBD80FF2D3C4F8A3
:101320000090E1E778682060DEE7406800EB02109B
:10133000016809B11860D7E7FFE7C3F80090D3E769
:10134000FC6F0000C46F0000CC000020026813682E
:10135000526831B19A4202D38068801A07E0981A25
:1013600070479A4201D3D01A70478068C01A401C57
:1013700070472DE9F04389B0884604466E46202127
:101380003046FFF775F8002504F1200910202118D8
:1013900011F8012D521C12F0FF020A7002D1401EFA
:1013A0000028F4DC334622460121484600F0C8FC00
:1013B000070017D110351036202DE7DB694618F8E5
:1013C00000200B5C53400B54401C2028F7DB80228C
:1013D000484600F0CDFC070004D104AD95E80F00AD
:1013E00084E80F002021684601F0C2FA09B03846AF
:1013F000BDE8F083002904D00A46006901A102F08B
:101400008DB870471B5B25644200000010B5044690
:101410000068FFF726FF0146A068C27F407E1144A6
:10142000B1FBF0F200FB121008B1002010BD01204A
:1014300010BD0000002904D00A46006901A102F095
:101440006DB870471B5B256444000000006901A172
:1014500002F064B80A0000002DE9FC4700260446AB
:101460008DF8046080683546B146B0468021A030D2
:10147000FEF7FEFF4049206902F050F8206902F0B3
:101480005AF800276B46012201A92046FFF7E2FE29
:101490000098D8B19DF804001B2806D0A16891F8E7
:1014A000A0101B29EED152281FD0A26808F1A0017C
:1014B000505408F1010000F0FF08B8F1090F0AD9F3
:1014C000A168042081F8A090BDE8FC872A494FF666
:1014D000C0101031884700980028D3D17F1CBFB2BC
:1014E000B7F57A7FCED30D20EEE7A16808F1A00012
:1014F0004A4601F80090A16891F8A1005B2803D04A
:1015000081F8A0200B20DFE702206FF02F0309E015
:1015100005EB850503EB4505401C3D44C0B2ADB26B
:10152000802808D200F1A007CF5D3B2FF0D1401CEE
:10153000C0B2802809D30C20C6E700BF06EB8606A0
:1015400003EB46063E44B6B2F1E700F1A007CF5DDB
:10155000002FF3D1FA20FA2E01D9087500E00E759C
:10156000FA2D02D9A168887501E0A0688575A06888
:1015700080F8A0200020A7E7C1470000002904D080
:101580000A46006901A101F0C9BF70471B5B2564D1
:1015900043000000002904D00A46006901A101F0BF
:1015A000BDBF70471B5B2564410000002DE9FF4172
:1015B0000C4620B14FF4064004B0BDE8F08120791C
:1015C000002748F2096538B141F61D5601281BD0A5
:1015D000022826D0681DEFE70220207102970397AA
:1015E000E0680190694601A802F0F0FC50B1029851
:1015F0008188E18000882081BDF80010029802F007
:1016000063FDD9E72846D7E70A4B6A460021A01DAB
:1016100002F094FC38B1074918398F61CF61A842B4
:10162000CAD13046C8E703488188019802F04CFDD2
:10163000F5E70000A400002010B50846114601F0AF
:101640001DFF002010BD10B503780022072B06D225
:10165000DFE803F005040610202930000A7010BDF1
:1016600001230B7003898B818388CB81C0688860DC
:101670000A7410BD02220A7002898A818288CA8196
:10168000C2688A60807D062802D00020087410BDE0
:101690000120FBE703220A70C2888A810289CA817D
:1016A000C068886010BD04230B70C0888881CA811F
:1016B0008A6010BD0520087010BD000070B5064D91
:1016C0000646002455F8241009B130468847641CAA
:1016D000042CF7D370BD0000E00300202DE9F05F7B
:1016E00017460E00814670D013B1F9B2FFF746FFDE
:1016F0000024FEF791FE8246006800E0641C315D24
:10170000415CC907FAD100253046FFF7AAFDD9F898
:101710000810001B4A7ED11B814228D306EB040827
:1017200005E000BF18F805100A290CD06D1C854291
:10173000F8D33119D9F8100001F0F0FE4846BDE8A1
:10174000F05FFFF783BED9F8100001F0F4FE4146C8
:1017500000232A464846FFF789FD2C444846641C6E
:10176000FFF774FEF9B24846FFF708FFE1E78B4642
:10177000DAF8001006EB040818F805000B5CDB072C
:1017800002D0AB460A2804D0E819904201D26D1C61
:10179000F2E7D9F8100001F0CEFE414600235A4688
:1017A0004846FFF763FD5C44DAF8000000E0641C83
:1017B000315D415CC907FAD14846FFF747FEF9B2EF
:1017C0004846FFF7DBFE9EE7FFE7BDE8F09F406875
:1017D00002F024BB10B504460068FFF742FD014645
:1017E000A068827F407E1144B1FBF0F200FB121032
:1017F00008B1002010BD012010BD000070B510B16F
:101800004FF4064070BD1C4C0025207B08B12573A9
:1018100001E000F0A5F8207808282AD2DFE800F0DF
:101820002904080C10291422BDE8704000F026B8E5
:10183000BDE8704000F082B8BDE8704000F064B8C8
:10184000BDE8704000F040B80620207060880A496A
:1018500000EB8000283901EB80004068BDE8704053
:1018600002F05ABA072020706560BDE8704002F0AF
:1018700061BA48F20E6070BDA40400201149F0B4B2
:101880008A1C00200346A1F128050C18A67A4EB147
:10189000A37200EB800405EB8404E66816B9247C8F
:1018A000012C0AD0401C80B20228EED30B704B8072
:1018B0004B60F0BC41F61D5070471080F0BC00F04A
:1018C0003DB80000A40400200C48418801EB8102CF
:1018D000A0F1280101EB8201CA6852B10521017013
:1018E000074802218180016800230122054801F098
:1018F0001BBF042202704968F6E70000A404002020
:10190000B4000020E800002038B50A490848032444
:101910000B684268898803EB810153880470DB1CE3
:1019200000201B0400909B0B034801F024FF38BDEE
:10193000A4040020B4000020E8000020074910B5EE
:101940004888091D02F092FB18B1BDE81040FFF76E
:10195000DBBFBDE81040FFF7B7BF0000A4040020C4
:1019600070B5194C0121207808281AD2DFE800F060
:101970000419191C252929182089134A401C208183
:10198000002060802073283A00EB800312F8233097
:1019900043B100232518401C80B2AB720228F3D358
:1019A000217070BD0123F5E76068084940888A8886
:1019B000C01C10448880022004E000F009F80620D2
:1019C00000E00720207070BDA4040020B4000020B7
:1019D0000A4909484988026801EB81030749283907
:1019E00001EB83014B6803604A6082880A8102220E
:1019F0008280002008747047B4000020A4040020F6
:101A0000428800EB82020C328A4201D902207047E0
:101A10008188A1F57F42FF3A06D0018821B1806814
:101A2000401C01D00020704701207047884204D23A
:101A30000068401C01D00120704700207047000062
:101A40002DE9F0412D4F002520B17D604FF4064077
:101A5000BDE8F0810879012258B1294E01280CD047
:101A6000264C4FF002080834022820D0032841D128
:101A700027E00A7102F05EF93AE0002000EB8001F5
:101A800016F82110022908D0401C80B20228F5D394
:101A90003A707D6041F61D50DAE700EB800006F8F1
:101AA000205006EB8000406802F036F920E00D710E
:101AB000A4F80480002301221248216801F034FEBA
:101AC00016E00D71206802F027F90D4923682831CE
:101AD000498801EB810206EB8201D1F804C0C4F809
:101AE00000C04B60A3880B81A4F8048006F8225044
:101AF0000028ADD07D6048F20D60A9E7AC00002061
:101B00007C040020E80000202DE9FC5F0E008346E5
:101B1000DDE90C47C6F1000098469246814600D4A4
:101B20000846012503E000BF90FBFAF06D1C50450C
:101B3000FADAA84500D9454624B1002E01DB780722
:101B400000D5641EB80702D5B8F1000F0AD0F80717
:101B500008D13CB1A54205D220215846641EFFF7AA
:101B600096FAF6E7002E02DA4E462D2102E07807BB
:101B700003D52B215846FFF78AFA07F00300022805
:101B80000BD1B8F1000F08D13CB1A54205D23021EC
:101B90005846641EFFF77BFAF6E7CDE90047434657
:101BA00052463146584602F0F5FBBDE8FC9F70B541
:101BB0000C464FF488760546314601F083FE50B15D
:101BC0003146284601F083FE6079400703D521683D
:101BD00009B1012088474FF48A763146284601F042
:101BE00071FE50B13146284601F071FE6079000760
:101BF00003D5216809B1022088474FF48E7631461B
:101C0000284601F05FFE50B13146284601F05FFEE4
:101C10006079C00603D4216809B1002088474FF4D9
:101C200082763146284601F04DFE00280CD0314620
:101C3000284601F04CFE012020712168002903D0C4
:101C4000BDE870400320084770BD00002DE9F04753
:101C50009146884604464FF480354FF4A07600271D
:101C6000DFF884A016E000BFD4F8040328420DD0AA
:101C7000A05958B1C4F84853C4F808533146204617
:101C800001F048FF5AF82810F8B28847361D6D0059
:101C9000B6B27F1C4F45E7D3D4F804034FF48071EC
:101CA00010F0010F09D0D4F8000130B1204601F046
:101CB00031FF5AF8281004208847D4F804034FF461
:101CC000827110F0020F0CD0D4F80401002808D063
:101CD000204601F01FFF5AF82810BDE8F047052004
:101CE0000847BDE8F08700006C0000202DE9F041B6
:101CF000174688460646002417E000BF4FF4A07040
:101D000000EB84054FF480307159A04059B1D6F8EA
:101D10000413014207D02946304601F025FFD8E9D7
:101D2000002128469047641CE4B2BC42E6D3BDE8DB
:101D3000F081800701D00020704701207047FEE746
:101D400030B4144601291A46214602D030BC00F0B6
:101D50005BB930BC00F0B2BB002803D04FF48C71EB
:101D600000F006BE70474FF48C71FEF781BB000097
:101D7000F0B5802A07D0C02A07D0B2F5807F0BD0FB
:101D80006FF01F00F0BD0A2300E00C23036000F198
:101D90000803002443600AE00E23F7E701EB840503
:101DA000EE782D6866F31F6543F82450641CB4EB8D
:101DB000521FF3D3544A0168A2F508500A2904D0EF
:101DC0000C292BD00E2928D156E0002453F80C5BA7
:101DD00052F824104D4002CBC1F30726C1F3074748
:101DE000865DC75D86EA0726754000EB116636788A
:101DF00085EA064550FA81F63678641C85EA066560
:101E00001D6053F80C6C6E405E6053F8085C7540C2
:101E10006940C3E902510A2CD8D373E05FF0000493
:101E20001D6852F824104D405969C1F30726C1F3CB
:101E30000747865DC75D86EA0726754000EB116699
:101E4000367885EA064550FA81F63678641C85EACC
:101E500006659D615E686E40DE619D6875401D622D
:101E6000DE686E405E621D6975406940C3E90A51D3
:101E70001833082CD4D345E05FF000051C6852F8F5
:101E800025104C40D969C1F30726C1F30747865D89
:101E9000C75D86EA0726744000EB1166367884EA4F
:101EA000064450FA81F6367884EA06661E625C685B
:101EB00074405C629E6866409E62DC687440DC62CE
:101EC00050FA84F73F781E69C4F3074C7E40C4F390
:101ED000072710F80CC0C75D00EB14643F0287EAC7
:101EE0000C4724787E4086EA04641C635E696D1C9E
:101EF00066405E639C6974406140C3E90E412033D3
:101F0000072DBBD30020F0BD686A000010B50400A7
:101F10000AD004F12000FFF71FFF2046BDE8104063
:101F20004FF4A07100F024BD10BD4FF4A071FEF776
:101F30009FBA2DE9F041044685694FF4C070E0B0C6
:101F400016460F46854203D8C5F5C071B14204D28A
:101F50006FF0370060B0BDE8F0818046014668460A
:101F6000FEF786FAD4E94E302A466946984710B102
:101F70006FF03300EEE7A5693FB136B10DEB050018
:101F800032463946FEF74CFA354469462A46084639
:101F9000FEF7D4FF050007D169462046FFF7E9F9AF
:101FA000050001D1012020614146684600F0E0FCB7
:101FB0002846CFE72DE9FF4704460020DDF83080B2
:101FC000009001900290039004F120001F461646F5
:101FD0000D468146FFF7C7FEC4E94E56A06908B911
:101FE0002020A0614FF6F070E061802269464846EB
:101FF000FFF7BEFE002804D1424639462046FFF7CF
:1020000098FF04B0BDE8F087F0B589B0436800934D
:10201000CC780B6864F31F63009C019324685C40D8
:10202000009B01941B1D0093CC794B6864F31F63E4
:10203000009C029324685C40009B02941B1D00934B
:10204000CC7A8B6864F31F63009C039324685C4024
:10205000009B03941B1D0093CB7BC96863F31F6136
:10206000009B04911B684B4000990493091D00914B
:1020700000684FF0FF3101EB6005FE4800F580611C
:1020800000F5006400F5406EE7E01E68019B039FC9
:10209000DBB2C7F3074750F8233054F827705E408F
:1020A000049BDDF810C0C3F30723CCF3074C51F8B1
:1020B00023307B405E40029B1F0E73465EF8277004
:1020C0007E400596009E029F361D0096FFB2366840
:1020D00050F8277054F82CC07E40019FC7F30727A3
:1020E00051F8277087EA0C077E40039F3F0E53F894
:1020F00027707E400696009E039F361D0096FFB215
:10210000366850F82770DDF804C07E40029FCCF39B
:10211000074CC7F3072754F82CC051F8277087EAFB
:102120000C077E40049F3F0E53F827707E400796B1
:10213000009E049F361D0096FFB2366850F8277047
:10214000DDF808C07E40039FCCF3074CC7F3072798
:1021500054F82CC051F8277087EA0C077E40019F85
:10216000DDF81CC03F0ECCF3074C53F827707E40BF
:102170000896009E361D0096059F3668FFB254F8FB
:102180002CC050F827707E40089FC7F3072751F8EE
:10219000277087EA0C077E40069FDDF820C03F0EBF
:1021A000CCF3074C53F827707E400196009E069FA3
:1021B000361D0096FFB2366850F8277054F82CC0D0
:1021C0007E40059FC7F3072751F8277087EA0C0761
:1021D0007E40079F3F0E53F827707E400296009E78
:1021E000079F361D0096FFB2366850F82770DDF85D
:1021F00014C07E40069FCCF3074CC7F3072754F862
:102200002CC051F8277087EA0C077E40089F3F0ECC
:1022100053F827707E400396009E089F361D009657
:102220003668FFB2DDF818C050F82770CCF3074CC1
:102230007E40079F54F82CC0C7F3072751F827703A
:1022400087EA0C077E40059F3F0E5EF827305E4010
:10225000009B04961B1D6D1E0093009B002D3FF7F5
:1022600014AF019D1B68EDB2039E50F82550C6F3D4
:1022700007466B40049D54F82660C5F3072551F8C6
:10228000255075406B40029D049E2D0EC6F30746F7
:102290005EF825506B400593009B029D1B1D00932B
:1022A000EDB21B6850F8255054F826606B40019D34
:1022B000C5F3072551F8255075406B40039D2D0E41
:1022C0005EF825506B400693009B039D1B1D0093F9
:1022D000EDB21B6850F82550019E6B40029DC6F37D
:1022E0000746C5F3072554F8266051F82550754078
:1022F0006B40049D2D0E5EF825506B400793009BAC
:10230000049D1B1D0093EDB21B6850F8250043404F
:102310000398C0F3072051F820000299C1F3074148
:1023200054F82110484043400198000E5EF8200008
:10233000434000980893001D009001684E48059B9B
:1023400050FA83F31B78079C5940089BC4F3074459
:10235000C3F30723045DC35C1B0283EA04435940B3
:10236000069B00EB13631B7881EA036101910099DE
:10237000069B091D0091096850FA83F31B78089C9D
:102380005940059BC4F30744C3F30723045DC35CB2
:102390001B0283EA04435940079B00EB13631B783D
:1023A00081EA036102910099079B091D0091096868
:1023B00050FA83F31B78059C5940069BC4F30744ED
:1023C000C3F30723045DC35C1B0283EA0443594043
:1023D000089B00EB13631B7881EA0361039100996A
:1023E000089B091D0091096850FA83F31B78069C2D
:1023F0005940079BC4F30744C3F30723045DC35C40
:102400001B0283EA04435940059B00EB13600078EC
:1024100081EA006004900098001D009001981070FF
:102420000198000A50700198000C90700198000EFD
:10243000D07002981071010A5171010C9171000E57
:10244000D07103981072010A5172010C9172000E42
:10245000D07204981073010A5173010C9173000E2D
:10246000D073042101A800F083FA042102A800F02F
:102470007FFA03E0685A000068590000042103A8AD
:1024800000F076FA042104A800F072FA042105A8ED
:1024900000F06EFA042106A800F06AFA042107A8E9
:1024A00000F066FA042108A800F062FA04216846E8
:1024B00000F05EFA09B00020F0BD0000F0B589B070
:1024C00043680093CC780B6864F31F63009C01930E
:1024D00024685C40009B01941B1D0093CC794B68E1
:1024E00064F31F63009C029324685C40009B029489
:1024F0001B1D0093CC7A8B6864F31F63009C0393CD
:1025000024685C40009B03941B1D0093CB7BC9682F
:1025100063F31F61009B04911B684B400099049377
:10252000091D009100684FF0FF3101EB6005FE4886
:1025300000F5806100F5006400F5406EE7E01E687C
:10254000019B039FDBB2C7F3074750F8233054F8D1
:1025500027705E40029BDDF810C0C3F30723CCF365
:10256000074C51F823307B405E40049B1F0E73469E
:102570005EF827707E400596009E029F361D0096ED
:10258000FFB2366850F8277054F82CC07E40039F85
:10259000C7F3072751F8277087EA0C077E40019F91
:1025A0003F0E53F827707E400696009E039F361D0F
:1025B0000096FFB2366850F82770DDF804C07E4000
:1025C000049FCCF3074CC7F3072754F82CC051F8ED
:1025D000277087EA0C077E40029F3F0E53F8277052
:1025E0007E400796009E049F361D0096FFB2366817
:1025F00050F82770DDF808C07E40019FCCF3074CEF
:10260000C7F3072754F82CC051F8277087EA0C0746
:102610007E40039FDDF81CC03F0ECCF3074C53F8FF
:1026200027707E400896009E361D0096059F3668EE
:10263000FFB254F82CC050F827707E40069FC7F3B5
:10264000072751F8277087EA0C077E40089FDDF8BE
:1026500020C03F0ECCF3074C53F827707E40019604
:10266000009E069F361D0096FFB2366850F8277010
:1026700054F82CC07E40079FC7F3072751F82770F6
:1026800087EA0C077E40059F3F0E53F827707E4077
:102690000296009E079F361D0096FFB2366850F8DE
:1026A0002770DDF814C07E40089FCCF3074CC7F3B9
:1026B000072754F82CC051F8277087EA0C077E4092
:1026C000069F3F0E53F827707E400396009E089F9A
:1026D000361D00963668FFB2DDF818C050F8277036
:1026E000CCF3074C7E40059F54F82CC0C7F3072756
:1026F00051F8277087EA0C077E40079F3F0E5EF86F
:1027000027305E40009B04961B1D6D1E0093009BAE
:10271000002D3FF714AF019D1B68EDB2039E50F8EA
:102720002550C6F307466B40029D54F82660C5F35A
:10273000072551F8255075406B40049D049E2D0ED1
:10274000C6F307465EF825506B400593009B029D3B
:102750001B1D0093EDB21B6850F8255054F82660FD
:102760006B40039DC5F3072551F8255075406B401C
:10277000019D2D0E5EF825506B400693009B039D36
:102780001B1D0093EDB21B6850F82550019E6B4055
:10279000049DC6F30746C5F3072554F8266051F893
:1027A000255075406B40029D2D0E5EF825506B4004
:1027B0000793009B049D1B1D0093EDB21B6850F80E
:1027C000250043400198C0F3072051F820000299EA
:1027D000C1F3074154F82110484043400398000ECC
:1027E0005EF82000434000980893001D00900168A7
:1027F0004E48059B50FA83F31B78079C5940069B73
:10280000C4F30744C3F30723045DC35C1B0283EADC
:1028100004435940089B00EB13631B7881EA036172
:1028200001910099069B091D0091096850FA83F3F4
:102830001B78089C5940079BC4F30744C3F3072344
:10284000045DC35C1B0283EA04435940059B00EB13
:1028500013631B7881EA036102910099079B091DAC
:102860000091096850FA83F31B78059C5940089B36
:10287000C4F30744C3F30723045DC35C1B0283EA6C
:1028800004435940069B00EB13631B7881EA036104
:1028900003910099089B091D0091096850FA83F380
:1028A0001B78069C5940059BC4F30744C3F30723D8
:1028B000045DC35C1B0283EA04435940079B00EBA1
:1028C0001360007881EA006004900098001D009079
:1028D000019810700198000A50700198000C9070D7
:1028E0000198000ED07002981071010A5171010C0C
:1028F0009171000ED07103981072010A5172010C8F
:102900009172000ED07204981073010A5173010C79
:102910009173000ED073042101A800F029F804215E
:1029200002A800F025F803E06849000068480000AC
:10293000042103A800F01CF8042104A800F018F8F2
:10294000042105A800F014F8042106A800F010F8EE
:10295000042107A800F00CF8042108A800F008F8EA
:102960000421684600F004F809B00020F0BD000022
:10297000002904D0024B0A4600211B681847704703
:10298000C40000202DE9F047C5881E1DB6FBF5F7F1
:102990008946B6FBF5F1044605FB176C40791668CD
:1029A0006843DDF820A0F718001F874200D9C61A37
:1029B000166001E02468491E0029FBD1A5EB0C0735
:1029C0008846B74216D818E004EB0C00001D09EB4E
:1029D0000803BAF1000F3A4602D00146184600E05B
:1029E0001946FDF71DFD2468F61B4FF0000CB84496
:1029F000B54201D9374600E02F46002EE4D1BDE8AC
:102A0000F08770B58468006804F11405FEF729FCAE
:102A1000C1B2A971E07F6A790844B0FBF2F302FB0E
:102A200013035B1C2B70E07F0844B0FBF2F35B1CCC
:102A3000AB70A07F0844B0FBF2F35B1CEB70A07F8F
:102A40000844B0FBF2F102FB1101491C69702846F1
:102A500070BD10B50A8849888A4203D1FDF736FC5B
:102A6000012010BD002010BD70B50C460546FDF7D5
:102A700010FC002802D061882868084470BD08B5A1
:102A80006A46FDF785FC009808BD00002DE9F04777
:102A90000646806888B0D0F84801C0F3400038B1DD
:102AA00008B03046BDE8F0470022114600F00EBBEA
:102AB000012907D908B03046BDE8F0471DA2022120
:102AC00000F0DCBA2049DFF884A0A1EB0A0018214D
:102AD000B0FBF1F5002428E004EB44010AEBC1034C
:102AE0004FF000091F68D3E901103A793F78411A85
:102AF000B3F81480C01B1B69C0B2642712FB07F730
:102B0000B7FBF1FC642710FB07F7B7FBF1F7CDE942
:102B10000621CDE9041CCDE902700D4A082130469A
:102B2000CDE9008900F0AAFA641CAC42D4D308B005
:102B3000BDE8F08742616420617267756D656E74EF
:102B400020636F756E74000000000000000000003C
:102B50006C6B0000C20800F007030120895C9840FC
:102B60000840704770B515468268D2F84841C4F3F2
:102B7000400424B11A46294600F0A8FA05E031B114
:102B8000536804A2022100F079FA012070BD0020F0
:102B900070BD000025733A2077726F6E67207061F8
:102BA00072616D6574657220636F756E740A0000E2
:102BB00010B5044602290CD1A068D0F84801C0F332
:102BC000400030B120460022BDE81040114600F020
:102BD0007DBA064A06A1206900F0A0FC034A2069DC
:102BE000BDE81040093202A100F098BCBD470000CA
:102BF00025730000012907D0022909D18168D1F885
:102C00004811C1F3400119B10022114600F05EBA2B
:102C100001A2022100F032BA506C65617365207325
:102C2000706563696679206120737562636F6D6D8D
:102C3000616E642E0A0000001CB5012905D002292E
:102C40000BD014D94FF0010112E002B04FF0000296
:102C5000BDE81040114600F039BA536808A1CDE92B
:102C6000001313680CA2022100F008FA1CBD002119
:102C700002B00023BDE810401A46FFF773BF000002
:102C800020756E6B6E6F776E20706172616D65740A
:102C900065723A200000000025733A257325730AF7
:102CA0000000000010B50446012901D0012100E018
:102CB000002100231A46FFF755FF002809D1A1681B
:102CC000C1F83801E06840680068BDE8104000F0D5
:102CD00016BE10BD3EB50546012901D0012100E018
:102CE000002100231A46FFF73DFF002818D1E868AD
:102CF00040680468204600F0FFFDC0B2642110FB6C
:102D000001F2A168B2FBF1F2D2B20092CDE9010169
:102D1000A86804A20021D0F83831284600F0AEF9A6
:102D20003EBD00004C6F7374206C6F67733A2025B2
:102D3000750A4D6178206C6F672071756575652027
:102D40007574696C697A6174696F6E3A20257525AE
:102D500025205B25752F25755D0A00007CB514467E
:102D60000546012903D0022908D0012107E002B05D
:102D70000022BDE87040114600F0A8B900210023F0
:102D80001A46FFF7EFFE002809D1616804A0CDE9DB
:102D9000000109A202212846236800F06FF97CBDDA
:102DA00020756E6B6E6F776E20706172616D6574E9
:102DB00065723A200000000025733A257325730AD6
:102DC0000000000010B50446012901D0012100E0F7
:102DD000002100231A46FFF7C5FE002806D1A0688F
:102DE000D0F8481121F00401C0F8481110BD10B509
:102DF0000446012901D0012100E0002100231A46E8
:102E0000FFF7B0FE002806D1A068D0F8481141F0C5
:102E10000401C0F8481110BD7CB514460D460646A5
:102E2000022901D9012100E0002100231A46FFF701
:102E300099FE002811D1022D05D03046FEF704FA84
:102E400060B10BA30BE061680AA0CDE900010FA2FD
:102E500002213046236800F011F97CBD0EA302B0B8
:102E60003046BDE870400DA2002100F007B9000017
:102E70006F6E000020756E6B6E6F776E20706172E2
:102E8000616D657465723A200000000025733A2573
:102E90007325730A000000006F6666004563686F63
:102EA000207374617475733A2025730A0000000062
:102EB00010B50446012901D0012100E000210023C2
:102EC0001A46FFF74FFE002806D1A068D0F8481137
:102ED00021F00801C0F8481110BD10B504460129C1
:102EE00001D0012100E0002100231A46FFF73AFE3D
:102EF000002806D1A068D0F8481141F00801C0F8B8
:102F0000481110BD7FB50446012901D0012100E020
:102F1000002100231A46FFF725FE002827D1A068CC
:102F20000026D0F84051F5B101E0082E1BD2002355
:102F3000092201A9284600F09CFC9DF80C20A168FC
:102F400009232846A031521C00F093FCA0683346A8
:102F5000A0300090029D761C05A20021204600F0C2
:102F60008DF8002DE1D1A168002081F8A0007FBD7F
:102F70005B2533645D2025730A0000007CB515468F
:102F80000446012903D0022917D9012116E0A168BE
:102F900001F11802193101F0CDF900281ED0A16805
:102FA00050200FA24876A1681820087602B020466B
:102FB000BDE87040042100F061B8002100231A46EA
:102FC000FFF7D0FD002809D1696814A0CDE9000100
:102FD00018A2022120462B6800F050F87CBD0000AA
:102FE0004E6F20726573706F6E73652066726F6DC1
:102FF00020746865207465726D696E616C2C206147
:103000007373756D65642038307832342073637261
:1030100065656E2073697A650A00000020756E6B25
:103020006E6F776E20706172616D657465723A20A3
:103030000000000025733A257325730A0000000084
:1030400010B50446012901D0012100E00021002330
:103050001A46FFF787FD00280AD1064A06A1206913
:1030600000F05CFAA16850204876A1681820087624
:1030700010BD0000D6470000257300000FB438B51E
:10308000044607A80090A068D0F84821520717D539
:10309000C27E8A4214D0B0F81B50204601F0F2F9EB
:1030A0006A462069069900F052FAE9B2204601F01A
:1030B000E9F9290A204601F0C7F938BC5DF814FB8C
:1030C0006A462069069900F042FAF6E72DE9F04FCA
:1030D000804689B017460C468648FEF7C2F805467A
:1030E00084483638FEF7BDF8281A1FFA80F981485F
:1030F00081A223380090D8F8080008214368404690
:10310000FFF7BCFFD8F808004068FEF7AAF80546AC
:1031100078482338FEF7A5F8284482B2D8F808008A
:10312000002381684046FEF7D9FA75A20021404687
:10313000FFF7A4FF0FB304B300251CE005EB450A1D
:1031400004EB8A0BDBF80400FEF78BF8064654F814
:103150002A00FEF786F8311849450BD9DBF8040040
:10316000FEF77FF8064654F82A00FEF77AF8304456
:103170001FFA80F96D1CBD42E0D35E483638FEF779
:1031800070F84844801C1FFA80F95A4800904B465A
:103190005EA208214046FFF771FF09F1030086B2E5
:1031A0000790002332465BA14046FEF797FA002CB9
:1031B00052D000254EE000BF05EB450A04EB8A0B18
:1031C00054F82A00DBF804306BB350B3494956A2D7
:1031D0003639CDE9001008214046FFF74FFF09F1CD
:1031E00002000090DBF80400FEF73BF8064654F8B6
:1031F0002A00FEF736F806443E483638FEF731F826
:1032000031180098401A801EC1B24046FEF7B6F948
:103210003A224849D8F8100000F080F90098401C84
:103220000AE0009301E040B100904B4637A208212C
:103230004046FFF723FF079886B2DBF8081029B154
:10324000002332464046FEF749FA02E04046FEF7C8
:10325000FDF86D1CBD42AFD3D8F80800C068002847
:1032600045D0814600200446064603AD0290324612
:10327000761C02AB012148460095FEF723F8029820
:1032800050B10068FDF7EDFFA042F0D90298006848
:10329000FDF7E7FF84B2EAE7012E28D026A200213D
:1032A0004046FFF7EBFE00263246761C02AB0121BA
:1032B00048460095FEF706F80298002817D0A11C92
:1032C0008FB2006800903B4610A208214046FFF7ED
:1032D000D5FE0298FF1CBAB2416821B100234046D6
:1032E000FEF7FCF9E0E74046FEF7B0F8DCE709B08E
:1032F000BDE8F08FDC470000257325730000000057
:103300004F7074696F6E733A0A0000002020252DFB
:103310002A733A0053686F7720636F6D6D616E6436
:103320002068656C702E000020202573257325739E
:103330000000000008120000537562636F6D6D613C
:103340006E64733A0A00000000F1804000680028B3
:1033500000D00120704708B500F1804000210160D5
:103360000068009008BD000005480178022904D0DB
:103370000078012801D0002070470120704700002C
:103380000000002038B5041D002000F08BF8002854
:103390000ED12046FEF7C9FD0020034602460090EC
:1033A00004492046FEF706FEBDE8384000F0AABEFC
:1033B00038BD00003916000010B5001DFEF7A6FD4F
:1033C00000F09CF8002010BD2DE9F0416C460D4640
:1033D000074600F0BFFB20B1A54648F21950BDE8F2
:1033E000F081FFF7C1FF48B1124A134E106848B18F
:1033F0005068B04206D10020A546F0E74FF40540E2
:10340000A546ECE748F21750002FA546E7D1002D5E
:10341000A546E4D107490948083115461060FFF771
:10342000B1FF0028A546DAD16E602A680449116010
:10343000A546D4E7040000206572E54BFC0000209F
:103440006169614D0A4930B40A4B486848F202523A
:10345000984204D10868084C0368A34202D030BCEB
:1034600010467047002202604A6030BCFFF7A4BFDC
:10347000040000206572E54B6169614D70B50C4632
:1034800006460CE0402C01D2254600E04025E9B27A
:10349000304600F025F80028F9D1641B2E44002C9A
:1034A000F0D170BD70B50B4C217809B1852070BD8D
:1034B00000B9094809490088A4F80100601C00F01F
:1034C000BFFB0500F3D100F0E7FB01202070284688
:1034D00070BD000010000020CC450000213C000021
:1034E0000A4610B50146044800F06AFA044600F0A6
:1034F000D3FB204610BD00000470000010B500F0A2
:10350000DBFB00F0E3FB034800F077FA0249002000
:10351000087010BD04700000100000200FB408B542
:103520000399002904D004AA00926A4600F00FF81B
:1035300001B05DF814FB10B582680446002A05D07E
:10354000D4E90403216898470020A06010BD2DE94C
:10355000FC4791460C00804676D014F8011B39B127
:1035600025290ED04046FDF792FD20780028F4D1A1
:1035700098F80C00002867D04046BDE8FC47FFF7EC
:10358000DABF0020012221782B291BD02D2902D05F
:10359000302908D102E040F0010001E040F00200D3
:1035A000641C002AEFD100252A290ED02178A1F130
:1035B00030020A2A11D205EB850201EB4205641C98
:1035C000303DF1E740F00400EAE7D9F800100B1DA8
:1035D000C9F800300968641C0D44217800232E29A5
:1035E0000BD114F8011FA1F130020A2A05D203EB16
:1035F000830201EB4203303BF3E76C290DD06829CD
:103600000BD0692921D00BDC252918D0582931D0BD
:1036100063290ED0642915D117E014F8011FECE7D7
:10362000702969D0732932D075291BD0782909D126
:1036300020E0D9F80000011DC9F8001001784046CB
:10364000FDF725FD641C90E76CE0D9F800100A1D19
:10365000C9F800200968CDE900500A224046FEF76B
:1036600053FAEFE7D9F800100A1DC9F800200968DD
:103670000A2206E0D9F800100A1DC9F800200968DE
:103680001022CDE90050404600F084FEDAE7D9F878
:10369000001000270A1DC9F800200E68C00705D1D8
:1036A00012E04046761C7F1CFDF7F1FC31780029C2
:1036B000F7D104E0202140466D1EFDF7E8FCBD4235
:1036C000C0D9002DF6D1BDE74EB13046FCF7DBFE88
:1036D000074604E0202140466D1EFDF7D8FCBD42A0
:1036E00006D9002DF6D103E04046761CFDF7CFFC4D
:1036F00031780029F8D1A5E7D9F80000011DC9F8F3
:103700000010056830214046FDF7C1FC7821404695
:10371000FDF7BDFC08200021CDE900010346102281
:103720002946B0E7BDE8FC872DE9F0411F46164663
:1037300004000D4616D02068B8B1C6B160680268B2
:10374000501E284215D172432046FDF7D4FB80B1AC
:1037500020683B463246D0F810C029462046BDE8D6
:10376000F04160470E20BDE8F0810820FBE709200A
:10377000F9E71020F7E72DE9F8431D46089F1646A4
:10378000884604000DD066B1206860B135B160682C
:103790004068B5FBF0F100FB115030B10920BDE8E5
:1037A000F8830E20FBE70820F9E74046FDF79DFB74
:1037B00090B13046FDF799FB70B12A46414620464C
:1037C000FDF799FB40B1009720682B463246C76849
:1037D00041462046B847E2E71020E0E74FF0A0421C
:1037E00002EB8000D0F8002722F44032C0F8002716
:1037F000D0F8002742EA0141C0F8001770470000E6
:1038000038B5094B44181B6800936B4608E000BFAD
:1038100053F82010D1F8205520C2C1F82055401C83
:103820008442F5D838BD0000D0450000034908B5F2
:103830000844002101600068009008BD006000405D
:1038400002494058012800D0002070470060004025
:1038500000210846FFF7B8BDFFF7F4BD4058002827
:1038600000D00120704708B5002242504058009017
:1038700008BD1CB501920122009201AAFFF782F84F
:103880001CBD000002494058002800D001207047AC
:1038900000D00140034908B50844002202600068D6
:1038A000009008BD00D0014008B500F180400146FD
:1038B0000068002220B101200A600968009108BD5B
:1038C000104608BD4058002800D00120704708B5B8
:1038D000002242504058009008BD01680A684968BB
:1038E0008068884201D9491C00E00021914201D141
:1038F00001207047002070470068806870470068AA
:103900000021816070478068884201D9481C704757
:10391000002070472DE9F04104464FF000080E46A4
:103920004046FDF7F4FA2046FFF7D7FF070009D01D
:10393000207C38B14FF004080020FDF7EAFA404639
:10394000BDE8F0812068456841682046FFF7DBFF4D
:103950002168486037B1206801682046FFF7D3FF2F
:1039600021680860E268012A14D0022A16D0042ACD
:1039700019D0082A1CD06068314605FB0200FCF70C
:103980004FFD204600F0CEFA21688A688242D3D2E9
:103990008860D1E7616830784855F2E7616830881F
:1039A00021F81500EDE76168306841F82500E8E787
:1039B000D6E90001626802EBC502C2E90001E0E756
:1039C0002DE9F04107464FF0000415000E46204651
:1039D00011D0FDF79CFA384600F0A4FAA84205D3AE
:1039E0002A463146384600F06BFA00E005240020F4
:1039F000FDF78FFA2046BDE8F08110B5044600209F
:103A0000FDF785FA20680021016041608160BDE812
:103A100010400846FDF77DBA2DE9F04F81468068D9
:103A200089B0D0F84801C0F3400038B109B0484629
:103A3000BDE8F04F00221146FFF748BB012907D926
:103A400009B04846BDE8F04F1DA20221FFF716BBA2
:103A50002049DFF884B0A1EB0B001821B0FBF1F88E
:103A6000002526E005EB45010BEBC1042068D4E9F5
:103A7000026A8768204600F03FF864217943642297
:103A80004243B1FBF6F1B2FBF6F26369247CACB1C0
:103A900012A400BFCDE90664CDF800A00597CDE9DA
:103AA0000120CDE90361104A08214846FFF7E6FAF4
:103AB0006D1C4545D6D309B0BDE8F08F0BA4E9E7EE
:103AC00042616420617267756D656E7420636F7505
:103AD0006E7400001C700000047000004E6F206FB8
:103AE000766572666C6F7700DC6E00004F766572EB
:103AF000666C6F770000000010B504460020FDF7EB
:103B000006FA204600F00EFA04460020FDF701FAFE
:103B1000204610BD08B5002242504058009008BD14
:103B2000024A1060101D0160704700002C760040B2
:103B300002494058002800D0012070470070004022
:103B4000034908B50844002202600068009008BDDF
:103B50000070004003496846884201D20120704746
:103B6000002070472814002008B500224250405819
:103B7000009008BD70B54FF480763046FFF7E4FB47
:103B8000114CB50560B13046FFF7E5FB0120C5F8E3
:103B90000803607920B901206071216800208847FE
:103BA0004FF482763046FFF7CFFB00280AD030462C
:103BB000FFF7D1FB0220C5F808032168BDE870407B
:103BC0000120084770BD00001800002070B54FF0BC
:103BD0008040D0F80443114D600706D54FF484703F
:103BE000FFF762FE08B168688047A00607D54FF46A
:103BF0008A70FFF759FE10B1A96800208847600657
:103C00000AD54FF48C70FFF74FFE002804D0A96846
:103C1000BDE870400120084770BD00002000002072
:103C200001B569460548FFF775FE0448FFF755FEE4
:103C3000002801D000F040F808BD0000047000002A
:103C4000114A13780BB18520704751600178C9077C
:103C500004D00E490B6843F001030B600C49D1F806
:103C6000003223F00103C1F80032407809494001D5
:103C700081F8000401204FF0E0234103C3F8001154
:103C800010700020704700005C00002004D5004048
:103C900000D000400DE000E0064908B500220448CD
:103CA0000A60096800910121C0F80413016008BD91
:103CB00000D0004000D1004003490120C1F80803B2
:103CC000091D08607047000000D00040094901202C
:103CD000C1F80803091D086041034FF0E0220020ED
:103CE000C2F88011BFF34F8FBFF36F8F0249087086
:103CF0007047000000D000405C0000208A7D022A4E
:103D000004D90289CB881A44D21C02814289C9880D
:103D1000511AC91E4181704708B500210091014622
:103D20000823024A0248FFF726FD08BDFC450000B3
:103D3000E800002008B50020009004480823044A49
:103D400001680448FFF717FD08BD0000B40000201B
:103D5000F4450000E80000202DE9F05F2A4F0646F8
:103D60004FF0A04A4FF0010B0024381990F9501081
:103D7000491C3CD090F85000314620F0C005284640
:103D8000FEF7E8FE20B3204600F040F881460AEB3B
:103D90008500D0F80007C0F30148B8F1020F18D031
:103DA00002212846FFF71AFD0BFA05F1CAF8201583
:103DB0002846FDF783F957F820204AB14846B9F163
:103DC000030F11D0B8F1020F05D0B8F1030F07D0DF
:103DD0000DE00321E5E74846B9F1010F04D006E004
:103DE0004846B9F1020F02D1014628469047641CAB
:103DF000042CBAD3324601210020FFF701FD3068C0
:103E00000028B1D1BDE8F09F90020020024908448B
:103E100090F850008009704790020020F0B5264DC0
:103E2000264E85B004460027686828B922493068C4
:103E30000831FEF719FE686001460078072817D29E
:103E4000DFE800F0160408080E0E12002046FDF709
:103E5000F7FD02E0204600F03DFB040029D009E018
:103E60002046FDF7A3FBF8E72046FDF7C7FCF4E783
:103E700048F20E6414216846FCF7FAFAA4F5E850FB
:103E80001D3800D10024019469466868FDF7DBFB0A
:103E90006846FDF713FC08496F600024083130685C
:103EA000FEF7D7FD044801210C30FEF7E8FD00289D
:103EB000BAD105B0F0BD00008C000020EC45000038
:103EC0002DE9F04704460068164689460768002138
:103ED0002046FDF73BFA0546D4F80C806068AE42F8
:103EE00007FB08010DD808FB06F24846FCF798FAD4
:103EF000A168B819884200D9002021680860BDE88F
:103F0000F08708FB05F842464846FCF789FAE26864
:103F1000751B6A4309EB08006168FCF781FA2068A9
:103F20000560ECE701680A684968914201D3881A84
:103F300070478068801A0844401C70472DE9F0479C
:103F4000074620481C46154600780E4670B18DB1D4
:103F500084B1DFF874804FF00009A08802282DD2C8
:103F600000EB800118F8210020BB1BE048F2016043
:103F7000BDE8F08748F20460FAE720681FB1818845
:103F80003A8891420ED11EB101883288914209D1FE
:103F900080682860206868600B4828300089288184
:103FA0000020E5E7A088214600F060F80028E4D171
:103FB000C4F80090A088401CA080CEE748F20960B9
:103FC000D6E70000AC0000207C040020F8B50546D0
:103FD0004068244F0C46002648B32349CA688242F1
:103FE00025D80969814222D3FDF7A3FEF8B12889BB
:103FF000398988421BD1D5E900018A68904216D1DF
:104000000020A7F1280200BF00EB800302EB83032E
:104010005B688B4205D203F580538B4201D9208027
:1040200011E0401C80B20228EED30020F8BD2680AB
:1040300000960AE0009829688068884205D10098B7
:104040006860388928810120F8BD2088694600F021
:104050000DF80028EED12088401C80B22080022874
:10406000E6D3E2E7A4040020E800002070B50E4685
:1040700000EB8001134800EB81004468306804F5D0
:10408000805518B1418800EB810411E0083410E03C
:1040900029462046FDF7B4FC20B1012805D00228AE
:1040A00007D10DE00120346070BD608804EB80040E
:1040B0000C3429462046FDF7B9FC0028E8D170BD34
:1040C000002070BD7C04002038B50C460021009112
:1040D00001460423084A0948FFF74DFB10B148F296
:1040E0000D6038BD064A04EB840102EB810101201A
:1040F0000874002038BD0000F0450000E8000020F2
:104100007C04002010F1380F07D010F1360F07D0D3
:10411000002801D048F21650704748F211507047FD
:1041200048F214507047000030B406490024A1F151
:104130000C0351F8202033F8101023F8104030BC45
:1041400010470000700300202DE9FF5FDFF8EC80CE
:10415000DFF8EC908346002408F570660020FCF739
:10416000D6FE04EB440056F82010002933D006EBAD
:1041700080077D6805B933A50020FCF7CAFE002D35
:1041800056D0204600F0BCF8824623462FA20821D4
:104190005846FEF773FF2B462FA208215846FEF71C
:1041A0006DFFBAF100001AD06421414304EB84038F
:1041B0008D0A08EB032303F2FF414FF48062CDE93F
:1041C00002A2CDE9001528A20821584603F5807304
:1041D000FEF754FF11E00020FCF79BFE28E004EB03
:1041E000840108EB012303F2FF4000902DA2082177
:1041F000584603F58073FEF741FF99F801104846D1
:10420000A14201D12DA308E04FF000414068E140F8
:10421000014201D02BA300E02DA330A20821584673
:10422000FEF72CFFBB6831A208215846FEF726FF97
:10423000641CE4B2032C91D3BDE8FF9F000500206D
:10424000BC0000203C4E554C4C3E00005461736B4A
:104250002025753A0D0A0000094E616D653A09275F
:104260002573270D0A00000009537461636B3A0936
:104270003078253038582D307825303858207573EF
:10428000656420696E202575252520282575206FF9
:104290007574206F66202575206279746573290D09
:1042A0000A00000009537461636B3A0930782530C5
:1042B00038582D3078253038580D0A0052756E6EFA
:1042C000696E670052756E6E61626C650000000079
:1042D00053757370656E6465640000000953746102
:1042E00074653A0925730D0A0000000009466C61E7
:1042F00067733A093078253038580D0A0D0A0000E6
:1043000000EB8001094810B500EB012101F5A06226
:104310004FF48060064B01F5807103E010C99C42A8
:1043200002D1001F9142F9D310BD0000000500200A
:104330000ED0ADDE2DE9F04115460E460446FDF7E0
:104340008BF878B9A068FA21077D90F8168020468E
:10435000FDF714F9FA212046FDF74CF82046FDF749
:104360007BF810B10620BDE8F081A068007D3070B8
:10437000A068807D28703078C01BC1B22046FDF750
:1043800059F82978A1EB0800C1B22046FDF702F9DF
:104390000020E8E72DE9F05F8346DDE90A4A994607
:1043A00090460D460846012703E000BFB0FBF8F039
:1043B0007F1C4045FAD2B94500D94F465FEACA7022
:1043C00012D18CB15FEA8A7002D5B9F1000F01D029
:1043D000202607E0302605E031465846641EFCF7EB
:1043E00056FE0CB1A742F7D35FF00106B9F1010FF9
:1043F00002D9A9F1010903E0B5FBF6F0404502D36B
:1044000006FB08F6F2E7DFF83C9000BFB5FBF6F0DC
:1044100000FB165519F800105846FCF738FEB6FB9D
:10442000F8F6002EF2D15FEACA7009D0002C07D04E
:10443000A74205D220215846641EFCF728FEF5E766
:10444000BDE8F09FE74700001CB5002913D0826843
:10445000127F8A420FD008A3D3E90023CDE90023BD
:1044600001F12F028DF803208268117700696A46F6
:1044700003A1FFF753F81CBD1B5B34006D00000067
:10448000257300001CB5826899B1D27E8A420FD094
:104490000CA2D2E90032CDE9003201F12F028DF8F1
:1044A00005208268D17600696A4608A1FFF736F8D0
:1044B0001CBDD176006902B0054ABDE8104003A1D9
:1044C000FFF72CB81B5B313B33006D0025730000F8
:1044D000AD4700002DE9F8430D46898A384A01EBC3
:1044E000810102EB810638B129463046FFF706FC10
:1044F0004FF40640BDE8F88331897068002400EB72
:1045000081072F48A97DA83848F20D6807294FD2A6
:10451000DFE801F00D2E172504414B004460A96926
:10452000016027482749A838FFF750FD30B1022025
:10453000A875042339462A1D009424E048F2096036
:10454000D8E728692A4608B1032000E001209075C9
:10455000042305F10C0207F10801009413E0012087
:10456000A8750094E88807F10C0183002A690AE025
:1045700028782A4603280CD006209075042305F1DC
:104580000802391D00941048FFF7F5F8B0B1444611
:1045900010E00520F1E70621A9750A49406809885D
:1045A000FFF792FD040005D108E041F61D5401E03B
:1045B00048F20E6429463046FFF7A0FB204699E7F3
:1045C0007C0400208C000020E80000200106000090
:1045D000000000500000000000000000010000008A
:1045E000010000000000000000000000C4030020E3
:1045F0000000FFFFDEC0ADDEFF011EF1DEC0ADDE5C
:10460000FE011EF1000000000C4600003C6B0000A3
:10461000186B0000000000008D2A00000000000060
:10462000000000000000000000000000446B0000DB
:104630004C6B0000044600008D2A000000000000C2
:10464000444600002C6C0000146C000000000000C8
:10465000C52D0000306C0000FC6B00000000000065
:10466000EF2D00000000000000000000000000002E
:1046700000000000000000007C4600002C6C0000E0
:10468000346C000000000000B12E0000306C00000F
:10469000906C000000000000DB2E00000000000015
:1046A000000000000000000000000000000000000A
:1046B000B4460000FC6C0000D06C0000000000005C
:1046C000A52C0000046D0000A46C00000000000098
:1046D000D52C0000000000000000000000000000D9
:1046E0000000000000000000EC460000506D0000DB
:1046F000306D00003C4600005D2D0000486D00005C
:104700000C6D000074460000192E0000586D00006A
:10471000206D0000AC460000392C000000000000B5
:104720000000000000000000000000000000000089
:1047300034470000A46D0000606D00000000000020
:1047400041300000000000000000000000000000F8
:1047500000000000BC6D0000AC6D00000000000017
:10476000B12B0000E86D0000C46D0000E4460000BD
:10477000F52B0000006E0000EC6D00000000000052
:10478000052F0000A86E0000086E00002C470000F6
:104790007D2F00000000000000000000000000006D
:1047A0001B37001B38002C20001B5B4A001B5B6D75
:1047B00000082008001B5B4B00202D20001B5B48DD
:1047C000001B5B366E001B5B324A000000000000DD
:1047D0000338FDD870471B5B3F336C002D682C20DD
:1047E0002D2D68656C7000303132333435363738F2
:1047F00039414243444546000000000000480000A3
:104800003C6B0000B06E000000000000193A000090
:104810000000000000000000000000000000000098
:10482000D46E00004C6B0000F8470000193A0000FD
:104830000000000038480000646F0000586F00005E
:1048400000000000494100000000000000000000DE
:104850000000000000000000886F00006C6F000086
:104860003048000000000000637C777BF26B6FC56E
:104870003001672BFED7AB76CA82C97DFA5947F063
:10488000ADD4A2AF9CA472C0B7FD9326363FF7CC3F
:1048900034A5E5F171D8311504C723C31896059ADC
:1048A000071280E2EB27B27509832C1A1B6E5AA0FF
:1048B000523BD6B329E32F8453D100ED20FCB15BEA
:1048C0006ACBBE394A4C58CFD0EFAAFB434D338553
:1048D00045F9027F503C9FA851A3408F929D38F527
:1048E000BCB6DA2110FFF3D2CD0C13EC5F9744175E
:1048F000C4A77E3D645D197360814FDC222A9088D5
:1049000046EEB814DE5E0BDBE0323A0A4906245C60
:10491000C2D3AC629195E479E7C8376D8DD54EA9C5
:104920006C56F4EA657AAE08BA78252E1CA6B4C691
:10493000E8DD741F4BBD8B8A703EB5664803F60EEA
:10494000613557B986C11D9EE1F8981169D98E94D9
:104950009B1E87E9CE5528DF8CA1890DBFE64268F2
:1049600041992D0FB054BB16C66363A5F87C7C84B7
:10497000EE777799F67B7B8DFFF2F20DD66B6BBDF0
:10498000DE6F6FB191C5C554603030500201010334
:10499000CE6767A9562B2B7DE7FEFE19B5D7D762E8
:1049A0004DABABE6EC76769A8FCACA451F82829DE4
:1049B00089C9C940FA7D7D87EFFAFA15B25959EBDA
:1049C0008E4747C9FBF0F00B41ADADECB3D4D467D3
:1049D0005FA2A2FD45AFAFEA239C9CBF53A4A4F7FE
:1049E000E47272969BC0C05B75B7B7C2E1FDFD1C57
:1049F0003D9393AE4C26266A6C36365A7E3F3F4135
:104A0000F5F7F70283CCCC4F6834345C51A5A5F49C
:104A1000D1E5E534F9F1F108E2717193ABD8D873BF
:104A2000623131532A15153F0804040C95C7C7524B
:104A3000462323659DC3C35E30181828379696A178
:104A40000A05050F2F9A9AB50E0707092412123688
:104A50001B80809BDFE2E23DCDEBEB264E272769F2
:104A60007FB2B2CDEA75759F1209091B1D83839E23
:104A7000582C2C74341A1A2E361B1B2DDC6E6EB279
:104A8000B45A5AEE5BA0A0FBA45252F6763B3B4DC3
:104A9000B7D6D6617DB3B3CE5229297BDDE3E33EA1
:104AA0005E2F2F7113848497A65353F5B9D1D16823
:104AB00000000000C1EDED2C40202060E3FCFC1F55
:104AC00079B1B1C8B65B5BEDD46A6ABE8DCBCB461B
:104AD00067BEBED97239394B944A4ADE984C4CD4E1
:104AE000B05858E885CFCF4ABBD0D06BC5EFEF2A7E
:104AF0004FAAAAE5EDFBFB16864343C59A4D4DD759
:104B000066333355118585948A4545CFE9F9F91007
:104B100004020206FE7F7F81A05050F0783C3C44A6
:104B2000259F9FBA4BA8A8E3A25151F35DA3A3FE12
:104B3000804040C0058F8F8A3F9292AD219D9DBCE1
:104B400070383848F1F5F50463BCBCDF77B6B6C100
:104B5000AFDADA754221216320101030E5FFFF1A29
:104B6000FDF3F30EBFD2D26D81CDCD4C180C0C14D9
:104B700026131335C3ECEC2FBE5F5FE1359797A288
:104B8000884444CC2E17173993C4C45755A7A7F2AD
:104B9000FC7E7E827A3D3D47C86464ACBA5D5DE7C9
:104BA0003219192BE6737395C06060A01981819842
:104BB0009E4F4FD1A3DCDC7F44222266542A2A7EFA
:104BC0003B9090AB0B8888838C4646CAC7EEEE2993
:104BD0006BB8B8D32814143CA7DEDE79BC5E5EE265
:104BE000160B0B1DADDBDB76DBE0E03B64323256AF
:104BF000743A3A4E140A0A1E924949DB0C06060A18
:104C00004824246CB85C5CE49FC2C25DBDD3D36E03
:104C100043ACACEFC46262A6399191A8319595A4DA
:104C2000D3E4E437F279798BD5E7E7328BC8C84310
:104C30006E373759DA6D6DB7018D8D8CB1D5D5646E
:104C40009C4E4ED249A9A9E0D86C6CB4AC5656FA29
:104C5000F3F4F407CFEAEA25CA6565AFF47A7A8EF1
:104C600047AEAEE9100808186FBABAD5F078788860
:104C70004A25256F5C2E2E72381C1C2457A6A6F1DF
:104C800073B4B4C797C6C651CBE8E823A1DDDD7C79
:104C9000E874749C3E1F1F21964B4BDD61BDBDDC4B
:104CA0000D8B8B860F8A8A85E07070907C3E3E4229
:104CB00071B5B5C4CC6666AA904848D8060303050A
:104CC000F7F6F6011C0E0E12C26161A36A35355F5C
:104CD000AE5757F969B9B9D01786869199C1C158AD
:104CE0003A1D1D27279E9EB9D9E1E138EBF8F8134C
:104CF0002B9898B322111133D26969BBA9D9D97005
:104D0000078E8E89339494A72D9B9BB63C1E1E2242
:104D100015878792C9E9E92087CECE49AA5555FF64
:104D200050282878A5DFDF7A038C8C8F59A1A1F851
:104D3000098989801A0D0D1765BFBFDAD7E6E631FC
:104D4000844242C6D06868B8824141C3299999B06B
:104D50005A2D2D771E0F0F117BB0B0CBA85454FCE9
:104D60006DBBBBD62C16163AA5C6636384F87C7C53
:104D700099EE77778DF67B7B0DFFF2F2BDD66B6BEC
:104D8000B1DE6F6F5491C5C5506030300302010130
:104D9000A9CE67677D562B2B19E7FEFE62B5D7D7E4
:104DA000E64DABAB9AEC7676458FCACA9D1F8282E0
:104DB0004089C9C987FA7D7D15EFFAFAEBB25959D6
:104DC000C98E47470BFBF0F0EC41ADAD67B3D4D4CF
:104DD000FD5FA2A2EA45AFAFBF239C9CF753A4A4FA
:104DE00096E472725B9BC0C0C275B7B71CE1FDFD53
:104DF000AE3D93936A4C26265A6C3636417E3F3F31
:104E000002F5F7F74F83CCCC5C683434F451A5A598
:104E100034D1E5E508F9F1F193E2717173ABD8D8BB
:104E2000536231313F2A15150C0804045295C7C747
:104E3000654623235E9DC3C328301818A137969674
:104E40000F0A0505B52F9A9A090E07073624121284
:104E50009B1B80803DDFE2E226CDEBEB694E2727EE
:104E6000CD7FB2B29FEA75751B1209099E1D83831F
:104E700074582C2C2E341A1A2D361B1BB2DC6E6E75
:104E8000EEB45A5AFB5BA0A0F6A452524D763B3BBF
:104E900061B7D6D6CE7DB3B37B5229293EDDE3E39D
:104EA000715E2F2F97138484F5A6535368B9D1D11F
:104EB000000000002CC1EDED604020201FE3FCFC51
:104EC000C879B1B1EDB65B5BBED46A6A468DCBCB17
:104ED000D967BEBE4B723939DE944A4AD4984C4CDD
:104EE000E8B058584A85CFCF6BBBD0D02AC5EFEF7A
:104EF000E54FAAAA16EDFBFBC5864343D79A4D4D55
:104F00005566333394118585CF8A454510E9F9F903
:104F10000604020281FE7F7FF0A0505044783C3CA2
:104F2000BA259F9FE34BA8A8F3A25151FE5DA3A30E
:104F3000C08040408A058F8FAD3F9292BC219D9DDD
:104F40004870383804F1F5F5DF63BCBCC177B6B6FC
:104F500075AFDADA63422121302010101AE5FFFF25
:104F60000EFDF3F36DBFD2D24C81CDCD14180C0CD5
:104F7000352613132FC3ECECE1BE5F5FA235979784
:104F8000CC884444392E17175793C4C4F255A7A7A9
:104F900082FC7E7E477A3D3DACC86464E7BA5D5DC5
:104FA0002B32191995E67373A0C06060981981813E
:104FB000D19E4F4F7FA3DCDC664422227E542A2AF6
:104FC000AB3B9090830B8888CA8C464629C7EEEE8F
:104FD000D36BB8B83C28141479A7DEDEE2BC5E5E61
:104FE0001D160B0B76ADDBDB3BDBE0E056643232AB
:104FF0004E743A3A1E140A0ADB9249490A0C060614
:105000006C482424E4B85C5C5D9FC2C26EBDD3D3FF
:10501000EF43ACACA6C46262A8399191A4319595D6
:1050200037D3E4E48BF2797932D5E7E7438BC8C80C
:10503000596E3737B7DA6D6D8C018D8D64B1D5D56A
:10504000D29C4E4EE049A9A9B4D86C6CFAAC565625
:1050500007F3F4F425CFEAEAAFCA65658EF47A7AED
:10506000E947AEAE18100808D56FBABA88F078785C
:105070006F4A2525725C2E2E24381C1CF157A6A6DB
:10508000C773B4B45197C6C623CBE8E87CA1DDDD75
:105090009CE87474213E1F1FDD964B4BDC61BDBD47
:1050A000860D8B8B850F8A8A90E07070427C3E3E25
:1050B000C471B5B5AACC6666D89048480506030306
:1050C00001F7F6F6121C0E0EA3C261615F6A353558
:1050D000F9AE5757D069B9B9911786865899C1C1A9
:1050E000273A1D1DB9279E9E38D9E1E113EBF8F848
:1050F000B32B989833221111BBD2696970A9D9D901
:1051000089078E8EA7339494B62D9B9B223C1E1E3E
:105110009215878720C9E9E94987CECEFFAA555560
:10512000785028287AA5DFDF8F038C8CF859A1A14D
:1051300080098989171A0D0DDA65BFBF31D7E6E6F8
:10514000C6844242B8D06868C3824141B029999967
:10515000775A2D2D111E0F0FCB7BB0B0FCA85454E5
:10516000D66DBBBB3A2C161663A5C6637C84F87C4F
:105170007799EE777B8DF67BF20DFFF26BBDD66BE8
:105180006FB1DE6FC55491C530506030010302012C
:1051900067A9CE672B7D562BFE19E7FED762B5D7E0
:1051A000ABE64DAB769AEC76CA458FCA829D1F82DC
:1051B000C94089C97D87FA7DFA15EFFA59EBB259D2
:1051C00047C98E47F00BFBF0ADEC41ADD467B3D4CB
:1051D000A2FD5FA2AFEA45AF9CBF239CA4F753A4F6
:1051E0007296E472C05B9BC0B7C275B7FD1CE1FD4F
:1051F00093AE3D93266A4C26365A6C363F417E3F2D
:10520000F702F5F7CC4F83CC345C6834A5F451A594
:10521000E534D1E5F108F9F17193E271D873ABD8B7
:1052200031536231153F2A15040C0804C75295C743
:1052300023654623C35E9DC31828301896A1379670
:10524000050F0A059AB52F9A07090E071236241280
:10525000809B1B80E23DDFE2EB26CDEB27694E27EA
:10526000B2CD7FB2759FEA75091B1209839E1D831B
:105270002C74582C1A2E341A1B2D361B6EB2DC6E71
:105280005AEEB45AA0FB5BA052F6A4523B4D763BBB
:10529000D661B7D6B3CE7DB3297B5229E33EDDE399
:1052A0002F715E2F8497138453F5A653D168B9D11B
:1052B00000000000ED2CC1ED20604020FC1FE3FC4D
:1052C000B1C879B15BEDB65B6ABED46ACB468DCB13
:1052D000BED967BE394B72394ADE944A4CD4984CD9
:1052E00058E8B058CF4A85CFD06BBBD0EF2AC5EF76
:1052F000AAE54FAAFB16EDFB43C586434DD79A4D51
:10530000335566338594118545CF8A45F910E9F9FF
:10531000020604027F81FE7F50F0A0503C44783C9E
:105320009FBA259FA8E34BA851F3A251A3FE5DA30A
:1053300040C080408F8A058F92AD3F929DBC219DD9
:1053400038487038F504F1F5BCDF63BCB6C177B6F8
:10535000DA75AFDA2163422110302010FF1AE5FF21
:10536000F30EFDF3D26DBFD2CD4C81CD0C14180CD1
:1053700013352613EC2FC3EC5FE1BE5F97A2359780
:1053800044CC884417392E17C45793C4A7F255A7A5
:105390007E82FC7E3D477A3D64ACC8645DE7BA5DC1
:1053A000192B32197395E67360A0C060819819813A
:1053B0004FD19E4FDC7FA3DC226644222A7E542AF2
:1053C00090AB3B9088830B8846CA8C46EE29C7EE8B
:1053D000B8D36BB8143C2814DE79A7DE5EE2BC5E5D
:1053E0000B1D160BDB76ADDBE03BDBE032566432A7
:1053F0003A4E743A0A1E140A49DB9249060A0C0610
:10540000246C48245CE4B85CC25D9FC2D36EBDD3FB
:10541000ACEF43AC62A6C46291A8399195A43195D2
:10542000E437D3E4798BF279E732D5E7C8438BC808
:1054300037596E376DB7DA6D8D8C018DD564B1D566
:105440004ED29C4EA9E049A96CB4D86C56FAAC5621
:10545000F407F3F4EA25CFEA65AFCA657A8EF47AE9
:10546000AEE947AE08181008BAD56FBA7888F07858
:10547000256F4A252E725C2E1C24381CA6F157A6D7
:10548000B4C773B4C65197C6E823CBE8DD7CA1DD71
:10549000749CE8741F213E1F4BDD964BBDDC61BD43
:1054A0008B860D8B8A850F8A7090E0703E427C3E21
:1054B000B5C471B566AACC6648D890480305060302
:1054C000F601F7F60E121C0E61A3C261355F6A3554
:1054D00057F9AE57B9D069B986911786C15899C1A5
:1054E0001D273A1D9EB9279EE138D9E1F813EBF844
:1054F00098B32B981133221169BBD269D970A9D9FD
:105500008E89078E94A733949BB62D9B1E223C1E3A
:1055100087921587E920C9E9CE4987CE55FFAA555C
:1055200028785028DF7AA5DF8C8F038CA1F859A149
:10553000898009890D171A0DBFDA65BFE631D7E6F4
:1055400042C6844268B8D06841C3824199B0299963
:105550002D775A2D0F111E0FB0CB7BB054FCA854E1
:10556000BBD66DBB163A2C166363A5C67C7C84F84B
:10557000777799EE7B7B8DF6F2F20DFF6B6BBDD6E4
:105580006F6FB1DEC5C55491303050600101030228
:105590006767A9CE2B2B7D56FEFE19E7D7D762B5DC
:1055A000ABABE64D76769AECCACA458F82829D1FD8
:1055B000C9C940897D7D87FAFAFA15EF5959EBB2CE
:1055C0004747C98EF0F00BFBADADEC41D4D467B3C7
:1055D000A2A2FD5FAFAFEA459C9CBF23A4A4F753F2
:1055E000727296E4C0C05B9BB7B7C275FDFD1CE14B
:1055F0009393AE3D26266A4C36365A6C3F3F417E29
:10560000F7F702F5CCCC4F8334345C68A5A5F45190
:10561000E5E534D1F1F108F9717193E2D8D873ABB3
:105620003131536215153F2A04040C08C7C752953F
:1056300023236546C3C35E9D181828309696A1376C
:1056400005050F0A9A9AB52F0707090E121236247C
:1056500080809B1BE2E23DDFEBEB26CD2727694EE6
:10566000B2B2CD7F75759FEA09091B1283839E1D17
:105670002C2C74581A1A2E341B1B2D366E6EB2DC6D
:105680005A5AEEB4A0A0FB5B5252F6A43B3B4D76B7
:10569000D6D661B7B3B3CE7D29297B52E3E33EDD95
:1056A0002F2F715E848497135353F5A6D1D168B917
:1056B00000000000EDED2CC120206040FCFC1FE349
:1056C000B1B1C8795B5BEDB66A6ABED4CBCB468D0F
:1056D000BEBED96739394B724A4ADE944C4CD498D5
:1056E0005858E8B0CFCF4A85D0D06BBBEFEF2AC572
:1056F000AAAAE54FFBFB16ED4343C5864D4DD79A4D
:1057000033335566858594114545CF8AF9F910E9FB
:10571000020206047F7F81FE5050F0A03C3C44789A
:105720009F9FBA25A8A8E34B5151F3A2A3A3FE5D06
:105730004040C0808F8F8A059292AD3F9D9DBC21D5
:1057400038384870F5F504F1BCBCDF63B6B6C177F4
:10575000DADA75AF2121634210103020FFFF1AE51D
:10576000F3F30EFDD2D26DBFCDCD4C810C0C1418CD
:1057700013133526ECEC2FC35F5FE1BE9797A2357C
:105780004444CC881717392EC4C45793A7A7F255A1
:105790007E7E82FC3D3D477A6464ACC85D5DE7BABD
:1057A00019192B32737395E66060A0C08181981936
:1057B0004F4FD19EDCDC7FA3222266442A2A7E54EE
:1057C0009090AB3B8888830B4646CA8CEEEE29C787
:1057D000B8B8D36B14143C28DEDE79A75E5EE2BC59
:1057E0000B0B1D16DBDB76ADE0E03BDB32325664A3
:1057F0003A3A4E740A0A1E144949DB9206060A0C0C
:1058000024246C485C5CE4B8C2C25D9FD3D36EBDF7
:10581000ACACEF436262A6C49191A8399595A431CE
:10582000E4E437D379798BF2E7E732D5C8C8438B04
:105830003737596E6D6DB7DA8D8D8C01D5D564B162
:105840004E4ED29CA9A9E0496C6CB4D85656FAAC1D
:10585000F4F407F3EAEA25CF6565AFCA7A7A8EF4E5
:10586000AEAEE94708081810BABAD56F787888F054
:1058700025256F4A2E2E725C1C1C2438A6A6F157D3
:10588000B4B4C773C6C65197E8E823CBDDDD7CA16D
:1058900074749CE81F1F213E4B4BDD96BDBDDC613F
:1058A0008B8B860D8A8A850F707090E03E3E427C1D
:1058B000B5B5C4716666AACC4848D89003030506FE
:1058C000F6F601F70E0E121C6161A3C235355F6A50
:1058D0005757F9AEB9B9D06986869117C1C15899A1
:1058E0001D1D273A9E9EB927E1E138D9F8F813EB40
:1058F0009898B32B111133226969BBD2D9D970A9F9
:105900008E8E89079494A7339B9BB62D1E1E223C36
:1059100087879215E9E920C9CECE49875555FFAA58
:1059200028287850DFDF7AA58C8C8F03A1A1F85945
:10593000898980090D0D171ABFBFDA65E6E631D7F0
:105940004242C6846868B8D04141C3829999B0295F
:105950002D2D775A0F0F111EB0B0CB7B5454FCA8DD
:10596000BBBBD66D16163A2C52096AD53036A5380F
:10597000BF40A39E81F3D7FB7CE339829B2FFF8737
:10598000348E4344C4DEE9CB547B9432A6C2233D1B
:10599000EE4C950B42FAC34E082EA16628D924B2CC
:1059A000765BA2496D8BD12572F8F66486689816ED
:1059B000D4A45CCC5D65B6926C704850FDEDB9DA4C
:1059C0005E154657A78D9D8490D8AB008CBCD30A3A
:1059D000F7E45805B8B34506D02C1E8FCA3F0F0216
:1059E000C1AFBD0301138A6B3A9111414F67DCEAE5
:1059F00097F2CFCEF0B4E67396AC7422E7AD35855E
:105A0000E2F937E81C75DF6E47F11A711D29C58967
:105A10006FB7620EAA18BE1BFC563E4BC6D2792049
:105A20009ADBC0FE78CD5AF41FDDA8338807C73152
:105A3000B11210592780EC5F60517FA919B54A0D4A
:105A40002DE57A9F93C99CEFA0E03B4DAE2AF5B0BF
:105A5000C8EBBB3C83539961172B047EBA77D626DB
:105A6000E169146355210C7D51F4A7507E416553C3
:105A70001A17A4C33A275E963BAB6BCB1F9D45F12B
:105A8000ACFA58AB4BE303932030FA55AD766DF684
:105A900088CC7691F5024C254FE5D7FCC52ACBD7AB
:105AA00026354480B562A38FDEB15A4925BA1B67FB
:105AB00045EA0E985DFEC0E1C32F7502814CF012DD
:105AC0008D4697A36BD3F9C6038F5FE715929C951C
:105AD000BF6D7AEB955259DAD4BE832D587421D319
